:020000040000FA
:10000000500700206D020000710200007302000022
:100010007502000077020000790200000000000075
:100020000000000000000000000000007B02000053
:100030007D020000000000007F020000810200003D
:10004000830200008302000083020000830200009C
:10005000830200008302000083020000830200008C
:10006000830200008302000083020000830200007C
:10007000830200008302000083020000830200006C
:10008000830200008302000083020000830200005C
:100090008302000083020000830200008508000044
:1000A000830200008302000083020000830200003C
:1000B000830200008302000083020000830200002C
:1000C000830200008302000083020000830200001C
:1000D000830200008302000083020000830200000C
:1000E00083020000830200008302000083020000FC
:1000F00083020000830200008302000083020000EC
:1001000083020000830200008302000083020000DB
:1001100083020000830200008302000083020000CB
:1001200083020000830200008302000083020000BB
:1001300083020000830200008302000083020000AB
:1001400000000000000000000000000000000000AF
:10015000830200008302000083020000830200008B
:10016000000000000000000000000000000000008F
:10017000000000000000000000000000000000007F
:10018000000000000000000000000000000000006F
:10019000000000000000000000000000000000005F
:1001A000000000000000000000000000000000004F
:1001B000830200008302000083020000830200002B
:1001C000830200008302000083020000830200001B
:1001D000830200008302000083020000830200000B
:1001E00083020000830200008302000083020000FB
:1001F00083020000830200008302000083020000EB
:10020000830200008302000083020000000000005F
:1002100083020000830200008302000083020000CA
:1002200083020000830200008302000083020000BA
:1002300083020000830200008302000083020000AA
:10024000830200008302000083020000830200009A
:10025000830200008302000083020000830200008A
:1002600083020000830200008302000000F00AB84D
:10027000FEE7FEE7FEE7FEE7FEE7FEE7FEE7FEE756
:10028000FEE7FEE700F002F800F03AF80AA090E876
:10029000000C82448344AAF10107DA4501D100F041
:1002A0002FF8AFF2090EBAE80F0013F0010F18BFD4
:1002B000FB1A43F001031847880A0000A80A00004F
:1002C000103A24BF78C878C1FAD8520724BF30C882
:1002D00030C144BF04680C60704700000023002454
:1002E00000250026103A28BF78C1FBD8520728BF46
:1002F00030C148BF0B6070471FB51FBD10B510BDA2
:1003000000F029F81146FFF7F7FF00F019FC00F0A4
:1003100047F803B4FFF7F2FF03BC00F04BF800000E
:1003200072B6704762B67047EFF3108072B67047CE
:1003300080F31088704730BF704702480249014A75
:10034000024B70475003002050070020500300204C
:10035000704770477047754600F028F8AE460500B4
:100360006946534620F00700854618B020B5FFF7D0
:10037000E4FFBDE820404FF000064FF000074FF0CB
:1003800000084FF0000B21F00701AC46ACE8C009B3
:10039000ACE8C009ACE8C009ACE8C0098D467047BC
:1003A0000446AFF300802046FFF7B3FF00487047D4
:1003B000EC02002001491820ABBEFEE72600020037
:1003C0007047000004220B4B9A6200BF094A526832
:1003D00012F0040FFAD0084A1268C2F30B0202604E
:1003E000054A1268C2F30B020A604FF00402014B87
:1003F000DA607047008003408880034008B52E48CB
:10040000006840F010002D49C1F808012A48006832
:1004100000902B48006820F03000294908602948E6
:10042000006840F03000274908602748006820F045
:100430003000254908602548006840F03000234915
:1004400008601E48D0F8000140F480301B49C1F814
:1004500000011948006800901748006800901C4887
:10046000006820F00F001A4908600846006840F054
:100470000100086043F2102016490862084600682F
:1004800020F0040008600846406920F4706048616C
:100490004FF09800104908604FF4C0600D49C1F852
:1004A00084000846806820F00400886008460068E0
:1004B00040F00400086008BD08E10F4000E00F4074
:1004C00000440240204402401C45024028450240AE
:1004D000C48F0340008003408080034070B5044611
:1004E0000D4607A000F010FB0D2000F001FB0A21D3
:1004F000044800F095FA2946204600F091FA70BDB4
:10050000460000001C00002070B504460D4616A0F1
:1005100000F0FAFA0D2000F0EBFA2946204600F030
:100520007FFA13A000F0F0FA0D2000F0E1FA29465E
:10053000204600F075FA11A000F0E6FA0D2000F058
:10054000D7FA2946204600F06BFA0FA000F0DCFA3B
:100550000D2000F0CDFA2946204600F061FA0A216C
:100560000A4800F05DFA70BD53462C3100000000CF
:1005700053532C36303030303030300053522C3919
:100580003030303030303000522C31001C00002030
:1005900008B50AE044F26821009102E00099491E82
:1005A000009100990029F9D1401E0028F2D108BD20
:1005B0002C49096841F002012B4AC2F80811294967
:1005C00008682A49096821F02401284A116002F1CB
:1005D00004010968264A01EA0201264A11602649F7
:1005E000096821F02001244A11601146096841F090
:1005F000040111602149096821F024011F4A11609A
:100600001F49096841F024011D4A11601649D1F8BB
:10061000081141F00101144AC2F808111149086893
:100620001849096821F02001164A116002F10401FD
:10063000096821F4700102F104021160124909688D
:1006400041F02001104A11601049096821F0200191
:100650000E4A11600E49096841F020010C4A1160F0
:100660007047000008E10F4000E00F4028550040AF
:10067000FFF00FFF2C550040005400402054004074
:100680001C550040284500400044004020440040E4
:100690001C45004070B504460D4605A000F034FA34
:1006A0000D2000F025FA2946204600F08FF970BD94
:1006B0004C43000070B504460D4605A000F024FA36
:1006C0000D2000F015FA2946204600F07FF970BD94
:1006D0004C53000010B50E4800F0C6F8C8210C4875
:1006E000FFF712FF32210B48FFF7F8FE00F098F8F1
:1006F000094800F015FAC8210848FFF7DBFFC821B8
:100700000748FFF7C7FF074800F0A2F810BD000038
:10071000260000207E020020C4020020EE000020FF
:10072000B6010020D80200201D48006F40F00040B4
:100730001B4908670846006F40F4006008670846D8
:10074000006E20F4F86008660846006E00F5A860A8
:1007500008660846006F20F0700008670846006FC2
:1007600008670846006F20F4005008670846006FCD
:1007700040F0804008670846006F20F0FE5000F10E
:10078000E070086700BF0648006D10F0400FFAD017
:100790000348006F20F400600149086770470000BB
:1007A00000E00F4008B51648006840F020001549E9
:1007B000C1F8080112480068009013481349086006
:1007C0004FF01F0001F1040108604FF0000001F13B
:1007D0000401086001F1040108604FF00E000C49AB
:1007E00008604FF000000B4908604FF011000A4903
:1007F00008600A48006840F01F000849086008BD0A
:1008000008E10F4000E00F404B434F4C20550240A1
:100810000054024020540240105502401C55024032
:1008200010B505A000F070F90D2000F061F90A2163
:10083000064800F0F5F810BD452C302C303031451D
:100840004330323439363341000000001C000020B0
:1008500010B504460420034908610A21204600F02F
:10086000DFF810BD0050004010B5044620200449B8
:1008700008604FF00A01204600F0D2F810BD0000D9
:10088000804000400120054948620548006810F09A
:10089000200F02D10348044908607047002003403C
:1008A000805000400400FA050CED00E00348C068E9
:1008B00020F001000149C86070470000002003409B
:1008C00008B51249096841F00401104A1160114647
:1008D0000968009100210E4AD16011600221516027
:1008E000411E916200219163012151629161094988
:1008F000096821F07F41074A11604FF40001064A60
:1009000011604FF00101024AD16008BD04E60F40BA
:100910000020034014E400E000E100E01F4800680C
:1009200040F001001E49C1F804010846D0F8080152
:1009300040F00100C1F808011A48006B20F00100E6
:10094000184908634FF01B0048624FF008008862A6
:100950004FF07000C8620846006B40F00100086369
:100960001148006840F003000F4908600F48006814
:1009700040F003000D4908600D48006820F0FF00BA
:1009800000F111000A490860A1F10400006820F09C
:100990000300A1F1040108607047000004E10F406A
:1009A00000E00F4000C00040204400401C450040D3
:1009B0002C45004000BF0448806910F0100FFAD1A8
:1009C00001480068C0B2704700D000402DE9F041F6
:1009D00002460C460021FFF7EDFF43B211E0082B61
:1009E00003D139B1521E491E04E0A14202DA13704C
:1009F000521C491CB84637462E461D46FFF7DAFF03
:100A000043B20A2BEBD10D2DE9D1442EE7D14E2F65
:100A1000E5D1B8F1450FE2D100201070BDE8F081BA
:100A200010B502460C460021FFF7C4FF43B20DE0AB
:100A3000082B03D139B1521E491E04E0A14202DA4B
:100A40001370521C491CFFF7B5FF43B20A2BEFD1BC
:100A50000020107010BD00001F48006840F0020028
:100A60001E49C1F804010846D0F8080140F0020010
:100A7000C1F808011A48006B20F00100184908630A
:100A80004FF01B0048624FF0080088624FF0700082
:100A9000C8620846006B40F0010008631148006816
:100AA00040F003000F4908600F48006840F0030061
:100AB0000D4908600D48006820F0FF0000F11100AA
:100AC0000A490860A1F10400006820F00300A1F1C8
:100AD000040108607047000004E10F4000E00F408F
:100AE00000D00040205400401C5500402C550040D0
:100AF00000BF0449896911F0200FFAD1014908604B
:100B00007047000000D0004000B5024603E01078B6
:100B1000FFF7EEFF521C10780028F8D100BD00004E
:100B200010B5044600BF0548006810F0200FFAD049
:100B300014212046FFF774FF10BD000080500040D4
:100B4000FFF7F2FDFFF7EAFEFFF786FFFFF756FC1F
:100B5000FFF72EFDFFF726FE6FF07040FFF7B0FEA7
:100B6000FFF7E0FB4FF40000694908604FF0010017
:100B70006849C860FFF7AEFDFFF798FE00206649A0
:100B80000870C3E06548006800F00100644908701F
:100B900064496548FFF716FC62480068B0F54D7F70
:100BA00002D80120614908705E480068B0F54D7FA9
:100BB00007D95C480068B0F5CD6F02D803205B49C7
:100BC000087058480068B0F5CD6F08D955480068DE
:100BD00040F69C11884202D80520544908705148BB
:100BE000006840F69C11884207D94E480068B0F56D
:100BF0004D6F02D807204D4908704A480068B0F58B
:100C00004D6F02D909204949087047480068B0F57E
:100C10004D7F02D801204649087043480068B0F56E
:100C20004D7F07D940480068B0F5CD6F02D801204C
:100C30003F4908703C480068B0F5CD6F08D93A4884
:100C4000006840F69C11884202D805203849087097
:100C50003548006840F69C11884207D93248006840
:100C6000B0F54D6F02D80920314908702E48006850
:100C7000B0F54D6F02D909202D4908702848007839
:100C800070B9274890F900002A4991F9001088426C
:100C900006D0214890F9000080F001001E4908703C
:100CA000224890F90000244991F9001088420FD1A0
:100CB0001F4890F90000214991F90010884207D19E
:100CC000174890F900001B4991F9001088420BD099
:100CD00017490878FFF70CFF14490878FFF708FF59
:100CE0000D490878FFF704FF0120FFF751FC104879
:100CF00090F90000114908700C4890F900000E4965
:100D00000870074890F900000A4908703AE70000A7
:100D100000E100E00020034008000020FC530240F6
:100D20000900002014000020180000200600002008
:100D3000040000200A000020070000200500002019
:100D4000600D0000000000201C000000C002000038
:100D50007C0D00001C00002034070000DC020000B5
:100D60000000000000000000000000000000000083
:0C0D700000000000000000000000000077
:040000050000026D88
:00000001FF
