:020000040000FA
:10000000080700206D02000071020000730200006A
:100010007502000077020000790200000000000075
:100020000000000000000000000000007B02000053
:100030007D020000000000007F020000810200003D
:10004000830200008302000083020000830200009C
:10005000830200008302000083020000830200008C
:10006000830200008302000083020000830200007C
:10007000830200008302000083020000830200006C
:10008000830200008302000083020000830200005C
:100090008302000083020000830200009108000038
:1000A000830200008302000083020000830200003C
:1000B000830200008302000083020000830200002C
:1000C000830200008302000083020000830200001C
:1000D000830200008302000083020000830200000C
:1000E00083020000830200008302000083020000FC
:1000F00083020000830200008302000083020000EC
:1001000083020000830200008302000083020000DB
:1001100083020000830200008302000083020000CB
:1001200083020000830200008302000083020000BB
:1001300083020000830200008302000083020000AB
:1001400000000000000000000000000000000000AF
:10015000830200008302000083020000830200008B
:10016000000000000000000000000000000000008F
:10017000000000000000000000000000000000007F
:10018000000000000000000000000000000000006F
:10019000000000000000000000000000000000005F
:1001A000000000000000000000000000000000004F
:1001B000830200008302000083020000830200002B
:1001C000830200008302000083020000830200001B
:1001D000830200008302000083020000830200000B
:1001E00083020000830200008302000083020000FB
:1001F00083020000830200008302000083020000EB
:10020000830200008302000083020000000000005F
:1002100083020000830200008302000083020000CA
:1002200083020000830200008302000083020000BA
:1002300083020000830200008302000083020000AA
:10024000830200008302000083020000830200009A
:10025000830200008302000083020000830200008A
:1002600083020000830200008302000000F00AB84D
:10027000FEE7FEE7FEE7FEE7FEE7FEE7FEE7FEE756
:10028000FEE7FEE700F002F800F03AF80AA090E876
:10029000000C82448344AAF10107DA4501D100F041
:1002A0002FF8AFF2090EBAE80F0013F0010F18BFD4
:1002B000FB1A43F001031847B4090000D4090000F9
:1002C000103A24BF78C878C1FAD8520724BF30C882
:1002D00030C144BF04680C60704700000023002454
:1002E00000250026103A28BF78C1FBD8520728BF46
:1002F00030C148BF0B6070471FB51FBD10B510BDA2
:1003000000F029F81146FFF7F7FF00F031FC00F08C
:1003100047F803B4FFF7F2FF03BC00F04BF800000E
:1003200072B6704762B67047EFF3108072B67047CE
:1003300080F31088704730BF704702480249014A75
:10034000024B704708030020080700200803002024
:10035000704770477047754600F028F8AE460500B4
:100360006946534620F00700854618B020B5FFF7D0
:10037000E4FFBDE820404FF000064FF000074FF0CB
:1003800000084FF0000B21F00701AC46ACE8C009B3
:10039000ACE8C009ACE8C009ACE8C0098D467047BC
:1003A0000446AFF300802046FFF7B3FF00487047D4
:1003B000A802002001491820ABBEFEE7260002007B
:1003C0007047000070B504460D4616A000F0B4FB5F
:1003D0000D2000F0A5FB2946204600F039FB13A0B4
:1003E00000F0AAFB0D2000F09BFB2946204600F000
:1003F0002FFB11A000F0A0FB0D2000F091FB29467F
:10040000204600F025FB0FA000F096FB0D2000F029
:1004100087FB2946204600F01BFB2946204600F0BA
:1004200017FB70BD53462C310000000053532C368F
:10043000303030303030300053522C3330303030A8
:1004400030303000522C31000A281FD2DFE800F093
:100450001E0F1E191E051E141E0A40F293410F4A5C
:10046000116018E040F219610C4A116013E04FF47A
:1004700043710A4A11600EE040F25651074A11607A
:1004800009E040F2CF31054A116004E040F29341A7
:10049000024A116000BF00BF704700009880024010
:1004A0000146012906D0052902D0092906D103E019
:1004B000002005E00A2003E0052001E0002000BF45
:1004C00000BF70474149096841F00201404AC2F843
:1004D00008113E4908683F49096821F024013D4A56
:1004E000116002F1040109683B4A01EA02013B4A3A
:1004F00011603B49096821F02001394A1160114619
:10050000096841F0040111603649096821F02401AD
:10051000344A11603449096841F02401324A1160BB
:100520002B49D1F8081141F00101294AC2F80811FC
:10053000264908682D49096821F0AC012B4A116051
:1005400002F1040109682A4A01EA0201294A1160FC
:100550002949096841F0AC01274A11602749096817
:1005600021F0AC01254A11602549096841F0AC0130
:10057000234A11601649D1F8081141F01001144ABC
:10058000C2F80811114908681E49096821F00F01D5
:100590001C4A116002F1040109686FF30F0102F1B6
:1005A000040211601849096841F00F01164A1160F0
:1005B0001649096821F00F01144A116014490968AD
:1005C00041F00F01124A11607047000008E10F402E
:1005D00000E00F4028550040FFF00FFF2C55004071
:1005E00000540040205400401C5500402845004065
:1005F000FF00F00F2C450040004400402044004024
:100600001C4500402845024000440240204402406E
:100610001C45024070B504460D4605A000F08CFA5A
:100620000D2000F07DFA2946204600F0E7F970BD64
:100630004C43000070B504460D4605A000F07CFA5E
:100640000D2000F06DFA2946204600F0D7F970BD64
:100650004C5300001D48006F40F000401B490867E4
:100660000846006F40F4006008670846006E20F4FA
:10067000F86008660846006E00F5A860086608463F
:10068000006F20F0700008670846006F0867084692
:10069000006F20F4005008670846006F40F080406B
:1006A00008670846006F20F0FE5000F1E070086710
:1006B00000BF0648006D10F0400FFAD00348006FED
:1006C00020F40060014908677047000000E00F4017
:1006D0003648006840F480103549C1F800013548BB
:1006E000006840F002003349086000BF32480068EB
:1006F00010F0020FFAD03148006840F0D0002F49C6
:1007000008602F4800682F4908402F4908442C49A9
:100710000860081F006820F0D000091F0860274803
:100720002038006840F0D00024492039086024486F
:100730001038006840F0D0002149103908601C488A
:10074000006E40F4F0101A49086600201F49086442
:100750001F4908604FF0C8001C49086640F6084071
:1007600048664FF0C800C1F8A00040F6084019499B
:10077000086040F20D301549086543F608501649E7
:1007800008604FF0000011498865C86540F2934049
:10079000124908604FF001000C4908640C490860D8
:1007A0004FF00700094988607047000000E10F40E2
:1007B00000E00F4008E60F4008EA0F4020540040D8
:1007C0002C550040FFFFF000000004440080024070
:1007D00080800240A48002409080024098800240C5
:1007E00008B51648006840F020001549C1F8080116
:1007F0001248006800901348134908604FF01F002A
:1008000001F1040108604FF0000001F104010860EB
:1008100001F1040108604FF00E000C4908604FF030
:1008200000000B4908604FF011000A4908600A48AF
:10083000006840F01F000849086008BD08E10F404B
:1008400000E00F404B434F4C205502400054024003
:1008500020540240105502401C55024010B5044679
:100860000420034908610A21204600F0F1F810BD78
:100870000050004010B504462020044908604FF0A5
:100880000A01204600F0E4F810BD0000804000405E
:1008900001202F4948622F48006880F080004FF007
:1008A0004021C1F800022C48006870B92B4800684C
:1008B0004DF60811884205D2284800680A302749B9
:1008C000086002E0012024490860234800680128EC
:1008D0000ED12248006846F68441884205D91F4857
:1008E00000680A381D49086002E000201A490860C3
:1008F0001B48007864280AD14FF04020006980F03E
:1009000004004FF040210861002015490870154887
:10091000007864280AD14FF04020006A80F0080077
:100920004FF04021086200200E4908700C48007802
:10093000401C40B20A4908700A480078401C40B286
:100940000849087005480068401E014988627047E0
:100950000020034000420040100000200C00002056
:1009600006000020070000200348C06840F0010096
:100970000149C86070470000002003400348C06878
:1009800020F001000149C8607047000000200340CA
:1009900008B51049096841F004010E4A116011467A
:1009A0000968009100210C4AD16011600221516058
:1009B000411E9162002191630121516291610749B9
:1009C000096821F07F41054A11604FF40001044A93
:1009D000116008BD04E60F400020034014E400E06D
:1009E00000E100E000BF0448806910F0100FFAD168
:1009F00001480068C0B2704700D000402DE9F041C6
:100A000002460C460021FFF7EDFF43B211E0082B30
:100A100003D139B1521E491E04E0A14202DA13701B
:100A2000521C491CB84637462E461D46FFF7DAFFD2
:100A300043B20A2BEBD10D2DE9D1442EE7D14E2F35
:100A4000E5D1B8F1450FE2D100201070BDE8F0818A
:100A500010B502460C460021FFF7C4FF43B20DE07B
:100A6000082B03D139B1521E491E04E0A14202DA1B
:100A70001370521C491CFFF7B5FF43B20A2BEFD18C
:100A80000020107010BD00001F48006840F00200F8
:100A90001E49C1F804010846D0F8080140F00200E0
:100AA000C1F808011A48006B20F0010018490863DA
:100AB0004FF01B0048624FF0080088624FF0700052
:100AC000C8620846006B40F00100086311480068E6
:100AD00040F003000F4908600F48006840F0030031
:100AE0000D4908600D48006820F0FF0000F111007A
:100AF0000A490860A1F10400006820F00300A1F198
:100B0000040108607047000004E10F4000E00F405E
:100B100000D00040205400401C5500402C5500409F
:100B200000BF0449896911F0200FFAD1014908601A
:100B30007047000000D0004000B5024603E0107886
:100B4000FFF7EEFF521C10780028F8D100BD00001E
:100B500010B5044600BF0548006810F0200FFAD019
:100B600014212046FFF774FF10BD000080500040A4
:100B700046F684402F490860FFF76CFDFFF784FFBD
:100B8000FFF7A0FCFFF72CFEFFF7A2FD2948006845
:100B9000FFF7FEFE00202849087032202749087020
:100BA0000020274908702748FFF764FEC821254820
:100BB000FFF708FC2448FFF7CBFFC8212348FFF7C5
:100BC00039FDC8212248FFF725FD2248FFF746FEE0
:100BD0002EE0FFF707FF40B21F490870FFF702FF42
:100BE00040B21E490870FFF7FDFE40B2124908707E
:100BF000194890F90000FFF753FC1949086017489D
:100C000090F90000FFF720FC1548006815490860BE
:100C100009480078012802D1FFF7A6FE08E0FFF797
:100C2000ADFE0020104908604FF0402108610862C5
:100C3000CFE700000C000020050000200600002087
:100C4000070000201400002080020020DC000020AB
:100C5000A4010020940200200300002004000020D2
:100C600008000020FC430240004200408C0C0000C1
:100C70000000002014000000C0020000A00C0000D2
:100C800014000020F4060000DC0200000000000058
:100C90000000000000000000000000000000000054
:040000050000026D88
:00000001FF
